:020000040800F2
:10000000500B0020A1010008DD320008D5320008A5
:10001000D93200089D2E0008113C000800000000A5
:100020000000000000000000000000007137000820
:10003000A12F000800000000C9330008853800081F
:10004000BB010008BB010008BB010008BB010008A0
:10005000BB010008BB010008BB010008BB01000890
:10006000BB010008BB010008BB010008BB01000880
:10007000BB010008BB010008BB010008BB01000870
:10008000BB010008BB010008BB010008BB01000860
:10009000BB010008BB010008BB010008BB01000850
:1000A000BB010008BB010008BB010008BB01000840
:1000B000BB010008BB010008BB010008BB01000830
:1000C000BB010008BB010008BB010008BB01000820
:1000D000BB010008E9380008BB010008BB010008AB
:1000E000A52F0008BB010008BB01000800F002F8C2
:1000F00000F047F80AA090E8000C82448344AAF17B
:100100000107DA4501D100F03CF8AFF2090EBAE878
:100110000F0013F0010F18BFFB1A43F0010318473B
:10012000C83D0000E83D0000103A24BF78C878C1FF
:10013000FAD8520724BF30C830C144BF04680C60ED
:10014000704700000023002400250026103A28BF35
:1001500078C1FBD8520728BF30C148BF0B60704739
:10016000782901F0FF87002070471FB59DE8030044
:1001700002F066FC02F048F91FBD10B502F0ADF9BF
:1001800010BD02F010FA1146FFF7EFFF03F0D8FDA3
:1001900002F000FC03B4FFF7F0FF03BC02F0E2FD45
:1001A0000948804709480047FEE7FEE7FEE7FEE70B
:1001B000FEE7FEE7FEE7FEE7FEE7FEE70448054947
:1001C000054A064B7047000089380008ED0000081A
:1001D00050050020500B0020500700205007002041
:1001E0003920704701460878F74A1070491C087892
:1001F0005070491C08789070491C0878D0701046DF
:100200000068704701460878EF4A1070491C08786A
:10021000507010460088704770B50446282003F0DF
:1002200017FE0020E949087003F002FE054605E0CC
:1002300003F0FEFD2070641C681EC5B2002DF7D1CE
:10024000204670BD70B504462B2003F001FE00204F
:10025000DE490870402003F00FFE402500BF2078E3
:1002600003F00AFE641C681EC0B20500F7D12046E8
:1002700070BD4FF0FF30D64908600020D5490870A6
:10028000704710B5FFF7F5FFD3480068FFF7C4FFCC
:1002900010BD10B5044604EB8400CB49887008E01B
:1002A00003F090FD03F08EFDC7488078401EC649DC
:1002B0008870C54880780028F2D110BD70B504461A
:1002C0000D460B2003F0C4FD204603F0D5FD284663
:1002D00003F0D2FD70BD10B504460A2003F0B8FD4E
:1002E000204603F0C9FD14B103F0A2FD10BD204665
:1002F000FCE710B5222003F0ABFD03F099FD0020D0
:10030000B24908702020FFF7E6FF10F0200F0ED052
:10031000B2480078022805DB1B20FFF7DCFF10F055
:100320007F0F02D10220AD490870002010BD0021CE
:100330001C20FFF7C3FF0120A84908708220F5E7C1
:1003400070B504460D46A5480078A04201DBA348DD
:100350000570A2480078A84201D1002070BD01209C
:100360009E490870FFF7C5FF08B18220F6E7832099
:10037000F4E710B580209449887009E0012003F06B
:1003800067FD03F055FD90488078401E8E498870C7
:100390008D4880780028F1D1052003F059FD3220E6
:1003A000FFF777FF10BD70B504460D46284603F0F1
:1003B0004FFD002085490870204603F05DFD70BDAB
:1003C00010B50520864908701AE006216520FFF760
:1003D000EAFF00208149087003F02AFD9A2808D11D
:1003E00006219A20FFF7DFFF03F022FD652800D1E8
:1003F0000CE0FFF7BEFF7A480078401E784908708D
:10040000774800780028E0D1812010BD4FF40070BB
:1004100074490880012003F01BFD00207249087018
:100420007248007800F0BF007049087003F000FDCA
:100430006B49087008460078A2280CDB68480078F1
:10044000B62805DB6948007840F04000674908702D
:1004500001206549087001206049087015210520B8
:10046000FFF7A1FF0120FFF714FF03F0E1FC5F2875
:1004700001D18120C9E70020C7E710B532205249D9
:10048000487006E003F09EFC4F484078401E4E49FD
:1004900048704D4840780028F4D1222003F0D8FC61
:1004A00003F0C6FC49480078162809D04B4800786C
:1004B000012805D02020FFF70EFF10F0200F04D1F7
:1004C000012046490870822010BD4748007898B145
:1004D0004248007803280FDB3C4800783A494870CE
:1004E00000203A4908705A2003F0B2FC03F07AFC6D
:1004F00035484078354908703448007808B91020EC
:10050000E2E732480078DFE710B5044600202F49C3
:100510000870204603F09CFC03F064FC2B48007834
:1005200018B910202949087006E0284800781428D6
:1005300002D100202549087010BD10B5FFF7D9FE83
:1005400008B1822010BD40211C20FFF7B7FE5120CA
:10055000FFF7DAFF1D480078F0B903210220FFF70A
:10056000EFFE21480078A8B13820FFF7B4FE88B12B
:10057000FFF787FE18480068007805280AD1012196
:100580003420FFF79BFE5820FFF7BEFF0F4800788E
:1005900000B102E00020D5E700BF02210846FFF7C6
:1005A000CFFEFFF76AFFCDE70C480078122803D191
:1005B00003200A49087006E008480078102802DD88
:1005C0001020064908707047880000203000002085
:1005D0006000002079000020580000203100002039
:1005E000840000205400002052000020320000202F
:1005F00070B504460D46284603F02AFC0020FF494A
:100600000870204603F038FC03F0ECFBFB48007850
:1006100018B91020F949087006E0F8480078142845
:1006200002D10020F549087070BD10B5F44800787B
:1006300040B13420FFF74FFEF24949780843F149B1
:10064000487003E003213420FFF738FE2B2003F02D
:10065000FFFB0020E94908701F2003F00DFC552026
:1006600003F00AFC532003F007FC422003F004FCD3
:10067000432003F001FC032003F0FEFB072003F0FE
:10068000FBFB052003F0F8FB0A2003F0F5FB00203C
:1006900003F0F2FBDB49C978DB4A1278083A914053
:1006A000C8B203F0E9FB002003F0E6FB002003F0F2
:1006B000E3FBD449497801F0800003F0DDFBD14928
:1006C000497801F00F0003F0D7FB0A2003F0D4FBB8
:1006D000CC49497811F0800F01D0282100E02A216F
:1006E000C8B203F0C9FB002003F0C6FBC548407840
:1006F00010F0400F10D0C549C87903F0BDFBC349C5
:10070000887903F0B9FBC149487903F0B5FBBF49CB
:10071000087903F0B1FB0FE0BD49C87803F0ACFBEA
:10072000BB49887803F0A8FBB949487803F0A4FBDB
:10073000B749087803F0A0FB002003F09DFB0020E0
:1007400003F09AFBAF49C87803F096FB002003F052
:1007500093FB002003F090FB002003F08DFB0020B2
:1007600003F08AFB002003F087FB002003F084FBEA
:10077000002003F081FB3120FFF7ADFDA149487057
:10078000044601461E20FFF799FD3320FFF7A3FD25
:1007900004464F21FFF72CFF9848007820B999486C
:1007A000407880F0400000E00020C1B23120FFF727
:1007B00085FD9248007838B3904800789149487098
:1007C0008E480078162802D05220FFF79DFE8B48F5
:1007D0000078162801D1822010BD3220FFF77BFD62
:1007E000802141EA201441212046FFF701FF3320F8
:1007F000FFF771FD041141212046FFF7F9FE814802
:1008000040787E490870E7E77E4AD2787E4B1B78B5
:10081000093B9A40D1B27A4A12780AB1362200E0F6
:100820003522D0B2FFF74AFD7549097809B1372161
:1008300000E03621C8B20821FFF740FD2020FFF775
:100840004AFD40F0080421462020FFF737FD002034
:10085000C2E710B56F4800686D49096848407AD012
:1008600000206849887000BF6B48007810F0400F86
:1008700010D16548007809280CD080206149487063
:100880000120C870FFF7D1FE00B150E0552003F001
:10089000DFFA18E0542003F0DBFA00205749087013
:1008A0005B49087803F0E8FA5949487803F0E4FA1C
:1008B0005749887803F0E0FA5549C87803F0DCFA24
:1008C000012003F0D9FA55480068524908604E48A3
:1008D0000078A0F10901082088404A49487015E0D5
:1008E00003F080FA454800781D2809D14949086875
:1008F000FFF792FC47490860552003F0A9FA00E091
:1009000015E040484078401E3E4948703D484078D8
:100910000028E5D13E4800683E49086003F062FACD
:1009200036480078142801D1002010BD00BF35489A
:100930008078052810DA3148007816280CD0314824
:100940008078012801DBFFF798FD2E488078401C55
:100950002C49887088E706E0FFF78BFCFFF724FE40
:10096000FFF78BFDE1E70020DFE710B50020254908
:10097000887000BF2848007810F0400F19D1224835
:100980000078092815D000201E4948700120C87041
:10099000FFF74BFE00B174E0204800681D49086075
:1009A00019480078A0F109010820884015494870CD
:1009B0003FE0562003F04CFA00201049087014491B
:1009C000087803F059FA1249487803F055FA1049AB
:1009D000887803F051FA0E49C87803F04DFA0120E7
:1009E00003F04AFA0D4800680A4908600648007892
:1009F000A0F1090108208840024911E030000020E0
:100A0000520000208800002090000020A00000205C
:100A10005C00002060000020320000205800002010
:100A2000487016E003F0DEF9FA4800781E280AD173
:100A300000BFF9490868FFF705FCF749086057202F
:100A400003F006FA00E01CE0F4484078401EF34949
:100A50004870F24840780028E4D1F1480068EE4937
:100A6000086003F0BFF9EB480078142808D1ED487E
:100A7000007810F0200F01D103F0ABF9002010BD79
:100A800000BFE648807805280FDAE248007816288B
:100A90000BD0E2488078012801DBFFF7EEFCDF484D
:100AA0008078401CDD49887064E7FFF7E2FBFFF7C0
:100AB0007BFDFFF7E2FCE2E710B50F20D749487055
:100AC00062E05320FFF720FDD2480078002831D1A2
:100AD000FFF7D7FBD44800688079042803D10A20A7
:100AE000D249087014E0D04800688079082803D102
:100AF0000B20CE4908700BE0CB48006880791028A5
:100B000003D10C20C949087002E00920C7490870C8
:100B1000C648017801208840C5490880C34800784C
:100B2000A0F1090208209040C1B23920FFF7C6FBAE
:100B3000002010BDB7480078162803D0B5480078CB
:100B4000152800D124E0B549497811F0080F01D0EB
:100B5000402100E0C821C8B2FFF79BFBB5480078F0
:100B600050B1AC480078AD4988705A20FFF7CCFCF2
:100B7000AA488078A74908700A20FFF78AFBA7488F
:100B80004078401EA5494870A4484078002898D174
:100B900000BFA0480078CCE72DE9F041A6480078D6
:100BA000032808DAFFF7C9FC044614B12046BDE863
:100BB000F081FFF781FFFFF75CFB00209F49087081
:100BC00000BF002096490860FFF743FE05463DB18F
:100BD000FFF772FFFFF73DFE06460EB13046E6E72F
:100BE0009648007830B990480068007800F0FD0021
:100BF000E92829D0002723E08B48006800F5DF7042
:100C00003844007900F03F008449087008460078B5
:100C100098B18248007805280FD0804800780F28C6
:100C20000BDA8149096801F5DF71394401F10800E7
:100C3000FFF7D8FA7A49086007E007F11000C7B259
:100C4000402FD9D19220B2E700BF754800687C4997
:100C50000860FFF7FEFD8046B8F1000F01D0404666
:100C6000A5E771480068007800F0FD00E92801D090
:100C7000A1209CE76C480068407B7249087072496B
:100C8000087007207149087010E06F48007810F074
:100C9000800F00D012E06C4800784006000E6A49D0
:100CA00008706A480078401E6849087067480078F4
:100CB0000028EAD101206349087000BF5A48006843
:100CC000C08A634908800846008890B95648006881
:100CD000406A6049086008460068B0F5803F04D368
:100CE0005648007808B1A22061E75A480068584980
:100CF00008804D480068C07C4B490968097D08435D
:100D000007D0494800681330FFF77CFA5249086061
:100D100004E045480068006A4F490860424800689E
:100D20001130FFF76FFA424909884911491EC9B2CB
:100D300008443E490978491F0841484908603A4833
:100D40000068C089464908800846008840490988EB
:100D500008444249096808443E490860324800682E
:100D6000007C022807D13B480068394909880844BB
:100D70003849086002E0002035490880364800689C
:100D800034490968401A31490978C8403549086032
:100D90004FF6F571884211D200203349088031485E
:100DA000006880B240F6F571884203DA01202649D6
:100DB000087010E00220244908700CE01A4800680E
:100DC000008E2949088018480068C06A23490860D5
:100DD00003201D4908702248008898B11F48006808
:100DE00080B111480068007C012802D018480088B2
:100DF00040B10D480068C07A20B90B480068007BFC
:100E0000022833DA0D48007818B901200B49087020
:100E1000D7E62BE030000020600000208800002092
:100E20005C000020320000205800002090000020CC
:100E30005400002052000020310000208C000020CF
:100E40006400002034000020330000206C000020EB
:100E50006A000020800000203800002044000020AC
:100E6000500000207400002068000020FA4800882C
:100E7000FA4909680844FA490860FA480068F749DD
:100E800009680844F849086010210320FFF758FA60
:100E90008DE670B5F5480068F0490860FFF765FD1C
:100EA00005460DB1284670BDF1480088B8B1EB4841
:100EB0000068EF4909880844E8490860FFF755FDD4
:100EC00004460CB12046EEE7E4480068E84909888A
:100ED000401AE249086008460068E44908600020BA
:100EE000E4490870DFE72DE9F84304460D46E2487F
:100EF0000078022803D120684000009016E0DE4808
:100F00000078032803D12068800000900EE020685C
:100F100080B2ADF80000BDF8000000F00100D74934
:100F20000870BDF8000000EB60000090009880B2EF
:100F3000D3490988491E0840D24909680844D24962
:100F40000860D24909780098C840C5490968084432
:100F50000090C64900980968484014D0C5480078F8
:100F600040B1FFF796FF8046B8F1000F02D040462F
:100F7000BDE8F883B94900980860FFF76AFC0646A7
:100F80000EB13046F4E785B1FF2D03D14FF0FF30AD
:100F9000009007E0012D02D10020009002E0B1484E
:100FA000006800900120B3490870B3480078022817
:100FB00019D1B54800680088B549088000204880EC
:100FC000084600884FF6F771884201DB012000E0F7
:100FD0000020AA49087025B1BDF80000AA49096897
:100FE00008800020C4E7A4480078032825D1A6483B
:100FF00000680068A64908609DF8030000F00F0033
:10100000C97801F0F00108438DF80300A048C078CA
:1010100000F00F009E49C870084600689D4988424C
:1010200001D3012000E00020944908701DB19649C9
:1010300000980968086000209AE79DF8010000F018
:101040000F008DF801008F4800688D490988084419
:10105000401E8D490968884231D08B48006800786D
:101060008B4908708848006840784870002D70D01F
:101070008248007898B19DF800108548007861F3A7
:101080001F108149096808709DF8000000119DF843
:10109000011040EA01107C490968487059E09DF848
:1010A00000007949096808707948407800F0F0003C
:1010B0009DF80110084374490968487049E0724876
:1010C000006800787249087075B16C48007830B1DA
:1010D0009DF800106E48007861F31F1001E09DF844
:1010E000000069490968087062480078284305D003
:1010F000FFF7CFFE07460FB1384639E75B48006877
:10110000401C56490860FFF7A4FB8146B9F1000F67
:1011100001D048462CE75B48006800785C4948707D
:10112000BDB15648007838B19DF8000000119DF817
:10113000011040EA011006E05548407800F0F00048
:101140009DF8011008434F4909680870012049497A
:1011500008704A48007868B14D48007800114C4941
:10116000497840EA01104A49087008464078001161
:10117000487005E04648407800F00F004449487048
:101180000020434948800846008840F6F7718842AD
:1011900001DB012000E00020384908700020E7E66C
:1011A00010B5DCE02F4800683B490968884201D946
:1011B000B12010BD2B480068401C2A49086000215E
:1011C0002848FFF790FE04460CB12046F1E730486E
:1011D0000068002872D02348006840F0FF002E49C4
:1011E000096841F0FF01884200D1B8E02248007848
:1011F000012800D1B3E023480068234908601E4855
:10120000007802285BD11E4800880121C1EB6000F4
:1012100080B21F490880488000BF1B480068801CBE
:1012200019490860084600680088A0B94FF6FF70A9
:10123000154909680880164840880A490968084322
:1012400013490988491E401A0649086001200949C6
:1012500008700020ADE721E0500000205C00002075
:101260007000002080000020480000206000002066
:101270006A00002079000020330000207800002060
:1012800054000020580000208C0000209000002016
:1012900088000020F7FFFF0F74000020FF4800883F
:1012A000401E0004000CFD490880B6D1FB48408870
:1012B000FB4909680843FA4908604FE04DE0F948E6
:1012C00000880121C1EBA00080B2F4490880488069
:1012D00000BFF5480068001DF34908600846006833
:1012E000008850BBF0480068807830BBEE4800684A
:1012F000C07810F00F0F20D14FF6FF70EA4909684F
:101300000880FF20E84909688870E7480068C078CD
:1013100040F00F00E4490968C870E0484088E0499F
:1013200009680843DD490988491E401ADC490860FC
:101330000120DE49087000203BE7D8480088401EA5
:101340000004000CD5490880C3D1D4484088D44952
:1013500009680843D249086000E001E000BF21E7C6
:1013600000BFFF21CE48FFF7BEFD22E710B5FFF713
:1013700017FF0446B12C01D0204610BD0020C849FB
:101380000860FFF70DFFF8E710B5C948008808B9F5
:10139000002010BDC6480088C64909680844C649EF
:1013A0000860FFF756FA04460CB12046F1E7C3483F
:1013B0000068D0F8E801BA4909680844B8490860EB
:1013C00008460068BD490968C1F8E801FFF7CDFA91
:1013D000DFE72DE9FC5F222002F03AFD02F028FD54
:1013E000B7480078102806DAFFF7D6FB044614B198
:1013F0002046BDE8FC9F10210846FEF7A1FF0546E8
:101400000DB12846F5E70020AE490870AE480078D7
:1014100008B90020EDE7AC4800785C2803D0AA4862
:1014200000782F2804D1A848401CA84908600CE087
:10143000A54840783A2848D1A3480078432844DB9F
:10144000A148C01CA149086000BFA148007803283A
:1014500002D1A048006800E000209F4908609B4836
:1014600000680078002833D14FF0FF309B490860B6
:101470009748007803281AD00220974908609848B6
:10148000006894490968C9B2401A954908609148B2
:10149000006880B293490978884090490860924872
:1014A00000788C49C870084600688F4908708A48DF
:1014B00000687B49086000208C4908608C490870EE
:1014C00012207F490870412093E77F487F490860D8
:1014D00009E200BF8048006878B1834800788449F9
:1014E00008707D480068801E8249097888407C49E0
:1014F000096808448049086009E0764800687C492A
:101500000870774800680978401A7B490860D0E184
:101510007948006868490860FFF79BF906460EB1F4
:10152000304666E7002075490880B1E163480068ED
:101530007249098808445C490860084600680078D8
:10154000070000D1D2E1E52F00D19CE1052F00D1A9
:10155000E5275E4800680078B84204D05B48006820
:1015600000782A287ED1594800680078B84201D115
:10157000012000E000204949C870084690F8039017
:1015800050E04948006810F809004449C9784F4ABA
:101590001268515C884200D13BE04048C0784B491A
:1015A0000968085C68B13D48C07848490968085C2A
:1015B0005C2806D03948C07844490968085C2F285F
:1015C00011D13948006810F8090020280AD1B9F172
:1015D000080F04DA34480068007A202802D14FF05E
:1015E0000B0922E021E02D48C07838490968085CE1
:1015F0002E280CD12948C078082805D02A48006830
:1016000010F80900202802D14FF0070900E00CE093
:1016100000BF09F1010000F0FF092048C078401C1C
:101620001E49C870B9F10B0FABDB00BFB9F10B0F4E
:1016300033DB1D480068C07A10F0080F2DD1002060
:101640002F49087000BF18480068408B2249086085
:101650001F480078032804D113480068808A1E4977
:10166000488000E0FEE00D48C07818490968085C31
:1016700018B12348007800287AD017480068084934
:101680000860002019490860194908700648006878
:10169000C07A10F0100F4BD034E072E088000020C8
:1016A00080000020540000208C00002079000020E1
:1016B00068000020640000205C000020580000202A
:1016C000310000207A000020A00000207C000020D3
:1016D0003300002044000020380000203C0000209F
:1016E000480000209000002034000020400000202E
:1016F000840000206C0000204C00002050000020DE
:10170000780000204FF0FF30FA49086013211020C4
:10171000FEF716FE8246BAF1000F01D0504668E689
:10172000F548007808B1432000E04120C0B260E6EF
:10173000F2480068C069EF490860F148006828B9BC
:10174000FF20F04908700020EA49086014211020A9
:10175000FEF7F6FD0090009810B1009849E607E00A
:10176000E548007808B1432000E00020C0B240E620
:10177000E548C078401CE54909680844E349086029
:10178000A8E6E148C078E1490968085C2A2879D1CF
:10179000DA480068C07A10F0080F73D1DA48C078D0
:1017A000401CDA490968085C002844D100BF0020C9
:1017B0008346D549487031E0D048006810F80B00E6
:1017C000202827D0BBF1080F0AD12E20CE49497816
:1017D000CE4A12685054CC484078401CCA494870E0
:1017E000C648006810F80B00C7494978C74A126814
:1017F0005054C548407840B9C4480068007805286E
:1018000003D1E520C14909680870BF484078401CF1
:10181000BD4948700BF1010000F0FF0BBBF10B0F4D
:10182000CADB0021B8484078B84A12681154012038
:10183000B149087007E7B448C078401CB34909684B
:10184000085CFF2810D1AB48006860B1A948C07897
:1018500010F0800F01D002F0C3FAA6480068401EC5
:10186000A44908600EE0A2E7A748C078401CA74939
:101870000968085C401EC1B2A348C078401CA34A56
:101880001268115400BFA24800882030A049088087
:101890009F4800889F4909888842FFF647AE9E48C6
:1018A0000068401C9C49086096480078401E954995
:1018B00008709448007800287FF42AAE90480068A9
:1018C00000B911E000218E48FFF70DFB019001984F
:1018D00008B101988DE58848007800B104E08A4895
:1018E000006887490860F4E500BF00BF4FF00008BA
:1018F00011E08648006810F808005C2805D083488D
:10190000006810F808002F2801D1B32071E508F114
:10191000010000F0FF087D48006810F8080028B1B9
:101920007A48006810F808002A28E2D1422060E5D1
:1019300070B500207949087079480078142818DBC0
:101940007548006877490860FEF783FF04460CB1CC
:10195000204670BD744800686D4909884518E87ACA
:1019600010F0100F05D163480068E861FEF7FDFF35
:10197000EFE70020EDE710B569480078122801DA9A
:10198000B42010BD66480078122811D1674800784D
:1019900003280DD06648C078664908700020644965
:1019A000C870654800680968C9B20844624908609F
:1019B0005B480078132806DD59480078142805D1C3
:1019C0005E48007810B900205449087053480078E8
:1019D00028B1FFF7ADFF04460CB12046D1E7102136
:1019E0000846FEF7ADFCCCE72DE9F0474C480078FF
:1019F000132806DAFFF7EDFC054615B12846BDE8C9
:101A0000F08710210846FEF79BFC06460EB13046D3
:101A1000F5E74148006843490860FEF71AFF0746AA
:101A20000FB13846EBE74048006839490988441847
:101A3000E5202070FEF799FF8046B8F1000F01D035
:101A40004046DCE72E4800682F49086030B32C4838
:101A50000068401E2A49086000203949086000BF1C
:101A600001212948FFF73FFA8146B9F1000F01D063
:101A70004846C4E732480068401C314908601E48A7
:101A800000780028ECD0FFF704FA8246BAF1000F84
:101A900001D05046B3E7FFF777FCB0E70020AEE790
:101AA00027480068801E274909788840224909682C
:101AB00008441449097808441A49086070472DE918
:101AC000F04F87B0FFF785FC0E4908700846007894
:101AD00040B9FFF789FF0646002E70D0304607B0A8
:101AE000BDE8F08F0748007842282DD005480078DF
:101AF000F5E700003C000020780000208C0000206A
:101B00003800002084000020880000207C00002095
:101B100050000020540000204C0000207A000020DB
:101B2000310000205C00002058000020330000201D
:101B3000440000203400002048000020A0000020C5
:101B4000800000206C000020FB480088FB490988C9
:101B5000884234DBFA480068002874D0F9480168EC
:101B6000F9480068081AF9490978491E0840F849F7
:101B70000870F148008810F0FF0F06D0F348007895
:101B8000401EF3490978884219D10021EC48FFF73B
:101B9000AAF98046B8F1000F01D040469FE7ED4812
:101BA0000078002899D0E6480068EB490860FFF704
:101BB000DDFB8146B9F1000F02D048468FE798E07F
:101BC0000221DF48FFF78FF98146B9F1000F01D0FC
:101BD000484684E7FFF75DF98146B9F1000F01D06F
:101BE00048467CE7FEF745FB0020009008E0002017
:101BF000DA490968009A88540098401C80B2009025
:101C0000CE49098800984840F1D10020D049087099
:101C1000FFF746FFC848008810F0FF0F06D10020EC
:101C2000C5490880CE480068C6490860C7480078A2
:101C3000CC49087012E0FEF798FE8246BAF1000F18
:101C400002D050464BE719E0C5480068401CC44923
:101C50000860C4480078401EC2490870C148007836
:101C60000028E8D14FF0FF30BB490860FFF78CFB3C
:101C70000290029800283CD0029830E7AE480088D5
:101C800010F0FF0F35D1B8480068B149087000BFA7
:101C9000AC480068401EAB49086008460068B0497F
:101CA0000860FEF7D6FD07460FB1384617E700205B
:101CB000A14908800DE0A94800689F490988441897
:101CC0002078E52800D115E09B48008820309A490B
:101CD000088099480088994909888842EBDB9C482C
:101CE0000078401E10F0FF0099490870D0D1B22052
:101CF000F5E600BF9248006897490860FFF736FB99
:101D00008346BBF1000F01D05846E8E6FFF7C1F863
:101D10008346BBF1000F01D05846E0E68E480068CC
:101D2000874908604FF0FF308B490860FFF72CFBB4
:101D30000190019808B10198D1E68248006888496D
:101D40000860FEF786FD0690069808B10698C6E67C
:101D500082480068784909884518002005900BE002
:101D600005980B2801DA202000E00020059968542E
:101D70000598401CC0B2059005982028F0D343F286
:101D80002100288301202877002004901EE0774856
:101D90000068007800B91CE07448006800782E28BC
:101DA00006D10820049071480068401C6F49086003
:101DB0006E4800680078049968540498401CC0B2CA
:101DC00004906A480068401C6849086004980B2821
:101DD000DDDB00BF5A480068688359484088A88204
:101DE000FEF7C3FD0390039808B1039877E65448C3
:101DF00000685949086000205D4908605D49086035
:101E00005349087014211020FEF79AFA67E670B55E
:101E100059480078132801DAB42070BD4948006899
:101E20004F490860FEF715FD05460DB12846F4E759
:101E3000002052490870494800683F490988441801
:101E40004F48067AE07A4E49087296F0FF0003D0B8
:101E5000E6720120494908704948C08841494880D4
:101E6000E08A4749C8803F4840884FF6FF714840A4
:101E700005D03C484088E082012040490870404835
:101E8000808838494880208B3D4988803548408883
:101E90004FF6FF71484005D032484088208301202A
:101EA00036490870364800683549C860E0690860FE
:101EB0000846C07BFF280AD03148C0682C4908601A
:101EC000E06101202D49087000202E4908702B4840
:101ED000007828B1002029490870FEF746FD9CE7EC
:101EE00000209AE710B5FEF704FA08B1822010BD71
:101EF00021480078032811DAFEF71FFB40B140208B
:101F0000FEF7C7F9FEF719FB04460CB12046EEE7D1
:101F1000FEF7D2FD10B1FEF7B0FAE8E71A480078F4
:101F200048B15920FEF7F0FA184800780D4948707A
:101F300070BB0020DBE738E0500000205400002098
:101F4000380000204C000020480000203400002011
:101F5000840000207800002080000020580000202D
:101F60005C00002088000020440000207C0000204D
:101F70003C000020400000203100002079000020BB
:101F8000A00000207A000020520000203000002035
:101F9000FFE70A20FEF77DF95A20FEF7B5FA022086
:101FA000FEF777F949484078A1E700209FE710B590
:101FB0004748006800B944E0464840684649097807
:101FC000C84046490978401A4249486008460068B6
:101FD0004968884207D33F4800683E494968401A2B
:101FE0003C49086003E03A4800683D49086016E053
:101FF00000213B48FEF777FF04460CB1204610BD98
:102000003848007800B11CE0304800683449086066
:102010003048006834490978401A2E4908602D4834
:102020000068314909788842E2D22A4800682B4981
:102030000870FFF735FD2D4800682649086000202C
:10204000DDE7FF20254908704FF0FF302149086087
:102050000020D4E72DE9F041FFF7A2F8054625B1AD
:10206000B12D02D02846BDE8F08145B100201C49C1
:102070000860FFF795F806460EB13046F3E7FEF725
:1020800008FF07460FB13846EDE7154800681049CC
:1020900008601748006815490860FEF7DAFB8046BB
:1020A000B8F1000F01D04046DDE712480068124940
:1020B0000988441801202077054800686083044897
:1020C0004088A082FEF751FCCDE700008800002088
:1020D00038000020A0000020900000208400002094
:1020E0008000002078000020340000205C000020E8
:1020F0004C00002058000020500000200FB404497C
:1021000010B503AA029800F051F910BC5DF814FB59
:102110004804002070B5044685690068C10601D5F1
:10212000302600E02026C00707D070BDD4E9012189
:1021300030469047206A401C20626D1EF6D570BD67
:1021400070B5044685690078C00707D170BDD4E931
:10215000012120209047206A401C20626D1EF6D588
:1021600070BD000070B504460D4621461068AFF3FF
:1021700000802188090502D50F4A7A4402E00E4A00
:102180007A440E32002104F1240305E000F00F062A
:102190000009965D5E54491C0028F7D12078002381
:1021A000000704D5702D02D009B102231132204658
:1021B000BDE8704000F0A1B8221D00002DE9F05FDD
:1021C000894604464FF0000ADFF824B1FB44C0F80A
:1021D00020A02046E168884700287DD0252806D029
:1021E000D4E901219047206A401C2062F1E70025D4
:1021F0005F462046E16888472028064607DB312EE7
:1022000005D2B81910F8200C08B10543F1E7A8076A
:1022100001D525F00405C4F81CA00027C4F818A0B7
:102220002A2E09D0304601F0F5FC38B304EB8708BC
:10223000303EC8F8186019E059F8041B204604EB3A
:1022400087029161E1688847012F064618D1E0694D
:10225000002820DA25F020051DE0D8F8180000EB52
:10226000800006EB40003038C8F818002046E168CE
:102270008847064601F0CEFC0028EED1012F0AD097
:102280002E2E08D12046E16888477F1C0646022F83
:1022900045F02005C4DBA069002803DA404245F080
:1022A0000105A061E80701D025F01005A6B1A6F14F
:1022B0004100192802D8203645F400654A463146C7
:1022C000204625604D46FDF74BFF60B1012807D041
:1022D000ED1D25F0070000E007E000F1080978E7B0
:1022E00005F1040975E730467AE7206ABDE8F09FFA
:1022F000F81C00007047704770472DE9F0470D4605
:1023000099469246044600F124080168880604D5DF
:10231000E06921F01001216000E00120A84201DD08
:10232000471B00E00027A1697A1902EB0900081A8F
:10233000A0612078C00602D42046FFF7EBFE0026FD
:1023400008E0D4E901211AF806009047206A401CF1
:10235000761C20624E45F4DB2078C0060AD5204664
:10236000FFF7D8FE06E0D4E9012130209047206A2B
:10237000401C2062381EA7F10107F4DC07E0D4E915
:10238000012118F805009047206A401C2062281E91
:10239000A5F10105F3DC2046FFF7D2FE2078000608
:1023A00002D50220BDE8F0870120FBE7074B70B59E
:1023B0000D467B4400F011F80446284600F020F852
:1023C00010B14FF0FF3070BD204670BD4B190000BA
:1023D00001694A1C02610878704700B58FB0CDE9E9
:1023E00001310021059105497944CDE903101146D9
:1023F0006846FFF7E3FE0FB000BD0000E5FFFFFFFA
:10240000007B00F08000704710B54248542100F076
:10241000CEFA4148542100F0CAFA4048542100F055
:10242000C6FA3F493B483C4A3F4B08603D490A6079
:102430003A491960531C0365481C10650120086562
:102440003B48344A39A1784400F008FA20B93848AA
:1024500078440A3800F0A4FA37482F4A35A1784466
:1024600000F0FCF920B9344878440A3800F098FAB2
:1024700032482A4A2FA1784400F0F0F920B92F48B9
:1024800078440A3800F08CFA40232248DC0000210E
:10249000224600F0BFF920B125487844543800F0B6
:1024A0007FFA1D4822464023002100F0B3F920B1F5
:1024B00021487844543800F073FA18482246102313
:1024C000002100F0A7F9002806D01C487844BDE898
:1024D0001040563800F064BA10BD104870B5006D59
:1024E00020F001040B4800F02FFA0B4800F02CFA02
:1024F0000A4800F029FA09E0206D20F00105204685
:1025000000F022FA204600F073F82C46002CF3D19C
:1025100070BD0000F4030020480400209C0400204B
:1025200094000020980000209C0000207200000011
:102530008F1A0000770000007B1A0000671A000065
:102540000EB5CDE9000100F0EDFB029069460120D7
:10255000ABBE0EBD08B5694600900220ABBE08BDFB
:102560001FB58DE8070069460520ABBE04B010BD5D
:102570001FB58DE80F0069460620ABBEF6E708B52B
:10258000694600900920ABBE08BD1CB5CDE900012D
:1025900069460A20ABBE1CBD704708B5694600906D
:1025A0000C20ABBE08BD754600F028FAAE4605000B
:1025B0006946534620F00700854618B020B5FDF760
:1025C000FDFDBDE820404FF000064FF000074FF042
:1025D00000084FF0000B21F00701AC46ACE8C00941
:1025E000ACE8C009ACE8C009ACE8C0098D4670474A
:1025F00070B50446051F00F007FA0068002C14BFF0
:10260000446870BD002C18BFAC423CBF20466468D3
:10261000F8D301680A18AA4218BF456003D12A6896
:1026200005461144016028684119A1421CBF6C6035
:1026300070BD6168696021680844286070BD2DE93B
:10264000F04705460C46C86820F4201040F480008E
:10265000C860800602D5084600F023FBE06841F21E
:1026600082014FF0FF390140022903D0204600F0DB
:10267000C1FAB5E000F42041B1F5004F0FD1C0031D
:1026800006D56168E06A884200D80846606006E0C6
:102690002069E06260606069FFF77FFFA061A06869
:1026A0000022EEB200280DDAE1688B050AD4C0439F
:1026B000A06041F490302260E0606068411C61607D
:1026C0000670A5E0E0689046226040F40050E060AB
:1026D000206968BB6069FFF752FF012704F12405F8
:1026E000A0B1A08910F4407F08D0E06900F0D7F9CC
:1026F000206118B1E06840F4006016E0E7612561F0
:10270000E06820F4407040F480600EE0E06900F082
:10271000C6F900282061F1D0E06840F4006010F4B0
:10272000407FE06002D140F48070E060206960602A
:10273000E06825696FF0010AC1051FD56168E06A8C
:10274000884200D80846411B04D02246284600F0A3
:102750005BFAF0BBE068010203D5E562C4E9015809
:1027600054E0691CE1626160E16940F48030491E17
:10277000C4E9021030462E70BDE8F087010202D590
:1027800000F480320AE06068411C61600670E06815
:102790000A2E40F48030E06006D00022E16A6068D2
:1027A000814203D90B4602E00122F7E70346A789DD
:1027B0005B1B7F0503D4E7699F4200DDE2B18142E4
:1027C00000D80146E5620F1AC4E90158002B09DD63
:1027D00000E005E022461946284600F015FA08B147
:1027E0004846C9E747B1A069E5626560C01BA061C2
:1027F000E06840F01000E060E068000208D5616821
:10280000A069E562491B08446560A0615046B3E7D2
:102810003046B1E770B5C468A50713D0650211D47E
:10282000B2F5807F09D0B2F5007F06D0B2F5806F97
:1028300008D1012300F1240106E05D1E6FF07F4600
:10284000B54201D3012070BD0161C361416024F430
:1028500070611143C160002070BD00002DE9F0419E
:102860000C4607461646104600F06EF82078611CAC
:1028700061280AD0722802D077283CD102E00125D5
:10288000002405E00225042402E0082448F20205A1
:1028900011F8010B2B2806D0622809D011F8010C81
:1028A00074280AD00BE045F0030544F00204EFE77A
:1028B00045F0040544F00104EAE744F0100438460A
:1028C0002146FFF73DFE411C15D0002131617160AA
:1028D0004FF40071F560F1617061200704D5304656
:1028E0000222002100F00AF9306D40F0010030654D
:1028F0003046BDE8F0810020FBE72DE9F0410D46B0
:102900000646104C206DC10704D0410804D020F0C9
:102910000104F7E722460EE0542000F0C0F807005B
:102920000ED0206D47F00101084354212065384640
:1029300000F03DF83A4629463046BDE8F0418DE7C3
:102940000020D6E7F40300202DE9F04704464FF0BD
:1029500000094FF0FF37C568D4E90486A80707D0FF
:10296000204600F07BF93046FFF7F4FD002802DA3C
:102970003846BDE8F087280502D54046FFF738FE07
:102980004C21204600F013F8206D20F00100206556
:102990004846EEE70446AFF300802046FDF7FAFB19
:1029A00010B500F0A5F9BDE8104000F09BB94FF05C
:1029B000000200B5134694469646203922BFA0E88F
:1029C0000C50A0E80C50B1F12001BFF4F7AF09079B
:1029D00028BFA0E80C5048BF0CC05DF804EB89008C
:1029E00028BF40F8042B08BF704748BF20F8022BCF
:1029F00011F0804F18BF00F8012B70470048704756
:102A0000F00400207047000000487047F8040020E0
:102A1000704770477047704738B504460A46002033
:102A20006946AFF30080002808BF38BD0246009910
:102A3000204600F0A4F9012038BD012000F0F3B9D0
:102A4000F8B5AFF30080054600200C46102000BF0B
:102A50000646A819A0420DD9324669460020AFF3B8
:102A60000080070008BF00F0DEF90098A04218BF00
:102A70000546C419FFF7C8FF05600746F01D20F0A2
:102A800007004619284600F073F9B44208BFF8BDA4
:102A9000A21B31463868BDE8F84000F070B970B547
:102AA0000646FFF7B1FF056806F10B0020F00704AA
:102AB000B4429CBF002070BD2B466A68BAB1106852
:102AC000A04210D304F1080188423CBF506858600E
:102AD00007D35168101941601168091B01605860E3
:102AE0001460101D70BD13465268002AE7D12146BC
:102AF0002846FFF791FF0028DED170BD2DE9F04197
:102B0000044616460D464769007B80072ED038469E
:102B1000FFF735FD50BB3EB3012E02D0022E25D16A
:102B200004E0204600F045F905441DE03846FFF773
:102B300034FDE168002841F01001E16005DA20462B
:102B400000F058F80120BDE8F081C9030BD5626898
:102B5000E16A914200D81146A26911442269891A9A
:102B6000814200DD08460544002D01DA0220EAE733
:102B7000E16A6068E268814206D29103E06203D5AF
:102B800022F4003141F01002A6690027AE4213DCA6
:102B9000E16A814201D90B4600E0034603EB060CD3
:102BA0002369ACEB030CAC4506DD814201D98C46B0
:102BB00000E084469C4505D1A760276042F02000D4
:102BC000A5620DE0AD1BE669AE1B8142A66000D98F
:102BD0000846C01A281A20605819606022F02000A8
:102BE00003490840E060002084F84870ABE700002B
:102BF000BFCFD7FFC16821F4001141F08001C1604F
:102C000000218160016070472DE9F047814614463C
:102C10000E464FF0FF383248D5685769054209D053
:102C20003846A169FFF7B1FC002811DB2C48C043EE
:102C30000540E5602B46324649463846FFF790FC92
:102C4000A16920F00042B21A11440028A16103D00A
:102C50002046FFF7CFFF4046BDE8F08770B5044639
:102C60000569C06A6168884200D80846E16821F4B5
:102C70002011E160C90312D5A84208D02246411BA9
:102C80002846FFF7C1FF10B14FF0FF3070BD0020A4
:102C9000E562C4E90150E06820F48030E060002083
:102CA00070BD10B50446C06820F02000E060A16A45
:102CB000A06988420DD02046FFF7D0FFE06820F4DD
:102CC000405040F01000E060A06AA0612069E0621E
:102CD000606044F24001E0688843E06010BD00009D
:102CE00010000200002801D000F03CB8704700003E
:102CF00010B5014602A000F07DF8012010BD0000D3
:102D000053494752545245443A20526564697265AA
:102D100063743A2063616E2774206F70656E3A2089
:102D20000000000010B5431C02E010F8011B71B157
:102D30008107FAD14FF0013202C88C1A8C4314EA91
:102D4000C211F9D0C01A0A0603D0C01E10BDC01AA5
:102D500010BD0A0401D0801E10BD0902FCD0401E27
:102D600010BD000001491820ABBEFEE7260002009E
:102D700000210160C0E90110704710207047034630
:102D800040688C46002818BF88423CBF0346406814
:102D9000F8D318681844884207D00CF1030020F0DB
:102DA0000700001D411A521A0146081D0A60FFF76C
:102DB0001FBC10B50146C268900703D0900607D526
:102DC000886A0AE000F03EF801210160881E10BD0B
:102DD0008B69486818440B69C01A91F848301BB1D8
:102DE00091F84910401A10BD1103FCD50028FADDF6
:102DF000401E10BD70B505460C460A2000E06D1C53
:102E000000F018F835B128780028F8D102E0641CE9
:102E100000F010F814B120780028F8D1BDE8704017
:102E20000A2000F007B810B500F010F8BDE8104017
:102E3000FFF758BF08B569468DF800000320ABBE08
:102E400008BD000000487047F004002010B50128BC
:102E500005D0002103A0FFF7CDFF012010BD09A17F
:102E6000F8E7000053494752544D454D3A204F75FD
:102E700074206F662068656170206D656D6F727972
:102E8000000000003A2048656170206D656D6F722A
:102E90007920636F727275707465640000BFFEE71D
:102EA00010B5052006490870FDF79AF9352801DAB2
:102EB000FF2010BD034804490860FDF781FAF8E7D8
:102EC00032000020C00000205800002000B587B06C
:102ED0000121480400F08AFA01210D2000F0A6FA31
:102EE0004FF40040ADF8180003208DF81A00482078
:102EF0008DF81B0006A9274800F018F9264800F0B5
:102F000045FD0121082000F09DF90420ADF81800CE
:102F100003208DF81A0018208DF81B0006A91F4801
:102F200000F004F90820ADF8180004208DF81B000B
:102F300006A91A4800F0FAF84FF4165002904FF420
:102F40008050ADF80C000020ADF80E00ADF8100078
:102F5000ADF814000C20ADF8120002A90E4800F0E4
:102F600095FD01210C4800F004FD0F21012000F027
:102F7000BDF84FF40040009000208DF804000C20B4
:102F80008DF8050001208DF80600684600F04AF82B
:102F900007B000BD000C01400044004000080140A3
:102FA0007047000010B54FF4004000F027F818B14A
:102FB0004FF4004000F01CF8222000F049FF00F020
:102FC00037FF0949087008460078162803D1012008
:102FD0000649087006E004480078152802D102204E
:102FE0000249087010BD00003000002031000020B0
:102FF00001490860704700001404014001460020A8
:103000000022074B1B6803EA0102054B14331B68BF
:103010000B4013B10AB1012000E00020704700000E
:1030200000040140002123498279002A3AD00A464F
:10303000126803689A430B461A600A1D12680368F7
:103040009A430B1D1A60027911440A6803681A43F7
:103050000A60184A0832126803689A43154B08330D
:103060001A601A1D126803689A43124B0C331A60D7
:103070004279102A0ED11A1F126803681A430D4BA9
:1030800008331A601A1D126803681A43094B0C337F
:103090001A600DE00749427911440A6803681A432F
:1030A0000A6005E0027911440A6803689A430A60DD
:1030B00070470000000401400549096821F0100133
:1030C000034A11601146096801431160704700000E
:1030D0000020024001460020034A106800F038003A
:1030E00008431060704700000020024030B5002205
:1030F0008B071C0F0F2303FA04F20B4B8C1053F8B1
:1031000024309343084C8D1044F8253023468C100E
:1031100053F824308C07240F00FA04F42343024CA4
:103120008D1044F8253030BD080001402DE9F041F4
:10313000024600250026002000230024002791F8E5
:1031400003C00CF00F0591F803C00CF0100CBCF19B
:10315000000F03D091F802C04CEA050591F800C0B9
:10316000BCF1000F31D0146800202BE04FF0010CAF
:103170000CFA00F3B1F800C00CEA03069E4220D11D
:1031800083004FF00F0C0CFA03F7BC4305FA03FC65
:103190004CEA040491F803C0BCF1280F06D14FF0AB
:1031A000010C0CFA00FCC2F814C00AE091F803C04C
:1031B000BCF1480F05D14FF0010C0CFA00FCC2F82D
:1031C00010C0401C0828D1D31460B1F800C0BCF175
:1031D000FF0F34DD546800202EE000F1080C4FF0A2
:1031E000010808FA0CF3B1F800C00CEA03069E428D
:1031F00021D183004FF00F0C0CFA03F7BC4305FA02
:1032000003FC4CEA040491F803C0BCF1280F05D17B
:1032100000F1080C08FA0CF8C2F8148091F803C009
:10322000BCF1480F07D100F1080C4FF0010808FA73
:103230000CF8C2F81080401C0828CED35460BDE8BA
:10324000F0810000F0B50A4600230024002100258B
:1032500000F00046B6F1004F02D11D4EF16901E0C9
:103260001B4E7168C0F3034583B200F44016B6F5F7
:10327000401F08D121F07061154E766826F0706607
:10328000134F7E6012E000F48016B6F5801F06D161
:10329000032606FA05F4A14341F0706106E0460DED
:1032A000360103FA06F6B14341F0706122B1460DD2
:1032B000360103FA06F6314300F00046B6F1004F3E
:1032C00002D1034EF16101E0014E7160F0BD0000DA
:1032D0000000014000BFFEE700BFFEE770470000AE
:1032E00070B5002100230F22C47804B3154C246864
:1032F00004F4E064C4F5E064210AC1F10403CA40A7
:10330000447804FA03F184781440214309010E4CF7
:103310000678A155047804F01F050124AC40057817
:103320006D11AD0005F1E025C5F8004109E0047814
:1033300004F01F050124AC40044D0678761145F8D1
:10334000264070BD0CED00E000E400E080E100E00C
:1033500002490143024A1160704700000000FA056B
:103360000CED00E008B54FF4A060FFF7F1FF252059
:103370008DF8000002208DF8010000208DF8020079
:1033800001208DF803006846FFF7AAFF26208DF87C
:10339000000001208DF8010000208DF802000120BE
:1033A0008DF803006846FFF79BFF28208DF800008A
:1033B00000208DF801008DF8020001208DF8030037
:1033C0006846FFF78DFF08BD7047000029B1064A27
:1033D00052690243044B5A6104E0034A5269824332
:1033E000014B5A61704700000010024029B1064AA3
:1033F000D2690243044BDA6104E0034AD269824392
:10340000014BDA61704700000010024029B1064A02
:1034100012690243044B1A6104E0034A12698243B1
:10342000014B1A61704700000010024029B1064AA2
:1034300092690243044B9A6104E0034A9269824311
:10344000014B9A61704700000010024029B1064A02
:10345000D2680243044BDA6004E0034AD268824334
:10346000014BDA60704700000010024010B500F018
:1034700043F84FF4803000F001F900F05DF90446A4
:10348000012C24D1002000F0EDF8002000F028F9F4
:10349000A00200F019F90220FFF71CFE1020FFF730
:1034A0000BFE4FF4E011200400F02CF9012000F095
:1034B00023F900BF392000F0AFF80028FAD002202D
:1034C00000F02EF900BF00F0C5F80828FBD101215B
:1034D00044F60D20FFF7AAFF01210648FFF786FFFB
:1034E00001218804FFF782FF01210846FFF76EFFE4
:1034F00010BD0000040002000F48006840F0010009
:103500000D490860084640680C4908400A4948606F
:10351000084600680A4908400749086008460068EC
:1035200020F4802008600846406820F4FE004860CF
:103530004FF41F0088607047001002400000FFF841
:10354000FFFFF6FE30B500210022002400232D4DA0
:103550006D6805F00C0121B1042905D0082923D19B
:1035600005E0294D056022E0274D05601FE0254D4F
:103570006D6805F47012234D6D6805F480340225E2
:1035800005EB92421CB9214D554305600BE01D4DE2
:103590006D6805F400351DB11C4D5543056002E012
:1035A000194D5543056002E0174D056000BF00BF8F
:1035B000144D6D6805F0F0010909154D6B5C056847
:1035C000DD4045600F4D6D6805F4E061090A104D5E
:1035D0006B5C4568DD4085600A4D6D6805F460519F
:1035E000C90A0B4D6B5C4568DD40C560054D6D68D3
:1035F00005F44041890B074D6B5CC568B5FBF3F5DD
:10360000056130BD0010024000127A0000093D0043
:103610001A0000202A00002010B5014600220023D5
:1036200000204A11012A02D1094C236806E0022A2F
:1036300002D1074C236A01E0054C636A01F01F02C6
:10364000012494401C400CB1012000E0002010BD7A
:10365000001002400248406800F00C007047000073
:103660000010024001460020034A506820F0F0009C
:10367000084350607047000000100240114909687B
:1036800021F480310F4A11601146096821F480212C
:103690001160B0F5803F03D0B0F5802F0ED106E069
:1036A0000849096841F48031064A116007E005497C
:1036B000096841F4A021034A116000E000BF00BF87
:1036C000704700000010024001460020034A506885
:1036D00020F4E06008435060704700000010024092
:1036E00001460020034A506820F4605040EAC100BF
:1036F00050607047001002400149086670470000A2
:103700000000424202460020044B586820F47C101E
:1037100042EA01031843014B586070470010024011
:1037200001460020034A506820F00300084350601F
:10373000704700000010024038B5002000900024BF
:10374000002500BF3120FFF767FF05460098401CA9
:1037500000900098B0F5A06F01D0002DF2D031207C
:10376000FFF75AFF08B1012400E00024204638BDCD
:10377000704710B500F002F810BD00000CB5002035
:10378000019000903348006840F48030314908606F
:1037900000BF3048006800F4003000900198401CE1
:1037A0000190009818B90198B0F5A06FF1D129489F
:1037B000006800F4003010B10120009001E000200A
:1037C00000900098012843D12348006840F0100081
:1037D000214908600846006820F003000860084698
:1037E000006840F0020008601A48406819494860C3
:1037F0000846406848600846406840F48060486079
:103800000846406820F47C1048600846406840F450
:10381000E81048600846006840F08070086000BF0B
:103820000C48006800F000700028F9D00948406892
:1038300020F00300074948600846406840F0020055
:10384000486000BF0348406800F00C000828F9D128
:103850000CBD00000010024000200240042808D1E6
:103860004FF0E021096941F004014FF0E0221161BD
:1038700007E04FF0E021096921F004014FF0E02258
:10388000116170477047000010B51348006840F0A0
:1038900001001149086008464068104908400E4977
:1038A0004860084600680E4908400B490860084611
:1038B000006820F4802008600846406820F4FE007C
:1038C00048604FF41F008860FFF753FF4FF000601F
:1038D0000449086010BD0000001002400000FFF81D
:1038E000FFFFF6FE08ED00E008B50821184800F0DB
:1038F0009BF810B1164800F035F91548008800F023
:103900004000C0B1134801780078401C114A107083
:103910001148405C0E49091D0880104600780F4987
:103920000978884207D10A480C30008820F08000CE
:1039300007490C3108800648008800F0200028B1B3
:103940000348001D008840B2009000BF08BD000081
:103950000038014018000020C0020020190000209B
:1039600001F40072B2F5007F00D100BFCA430280AB
:10397000704721B1828942F40052828104E0828939
:103980004DF6FF731A4082817047000010B504465F
:103990002048844209D101218803FFF757FD002107
:1039A0004FF48040FFF752FD32E01B48844209D1BA
:1039B00001214804FFF72AFD00214FF40030FFF7F2
:1039C00025FD25E01548844209D101218804FFF72F
:1039D0001DFD00214FF48020FFF718FD18E010486E
:1039E000844209D10121C804FFF710FD00214FF4E2
:1039F0000020FFF70BFD0BE00A48844208D10121AB
:103A00000805FFF703FD00214FF48010FFF7FEFCCF
:103A100010BD000000380140004400400048004054
:103A2000004C00400050004002460020B1F5007FED
:103A300000D100BF13880B400BB1012000E0002033
:103A40007047F0B50346002400260025002040F60C
:103A50006A17B94200D100BF1846C1F3421401F001
:103A60001F06012707FA06F5012C01D10C3004E0EE
:103A7000022C01D1103000E014301AB107682F4336
:103A8000076002E00768AF430760F0BD2DE9F0472B
:103A900086B005460E460024A24600BFA146002778
:103AA000B08900B100BF2F462C8A4CF6FF7004404D
:103AB000F08804432C82AC894EF6F3100440B088A1
:103AC00031890843718908430443AC81AC8A4FF6BD
:103AD000FF400440B0890443AC8201A8FFF732FDE7
:103AE0001F48874202D1DDF810A001E0DDF80CA0EC
:103AF000A88900F4004040B10AEBCA0000EB0A10AC
:103B000031684900B0FBF1F807E00AEBCA0000EBAE
:103B10000A1031688900B0FBF1F86420B8FBF0F0BE
:103B200004012009642101FB1089A88900F40040E8
:103B300040B1322000EBC900B0FBF1F000F007000B
:103B4000044308E0322000EB09106421B0FBF1F0DF
:103B500000F00F0004432C8106B0BDE8F0870000A0
:103B60000038014001468888C0F308007047C1F35F
:103B7000080282807047000010B586B0044601211B
:103B80000520FFF753FC01218803FFF74FFC4FF49A
:103B90000070ADF8140018208DF8170003208DF880
:103BA000160005A91848FFF7C1FA4FF48060ADF878
:103BB000140004208DF8170003208DF8160005A9C5
:103BC0001148FFF7B3FA01940020ADF80800ADF8F2
:103BD0000A00ADF80C00ADF810000C20ADF80E0096
:103BE00001A90A48FFF752FF012240F22551074878
:103BF000FFF727FF01210548FFF7BBFE40210348DF
:103C0000FFF7AEFE06B010BD0008014000380140CD
:103C100000BFFEE730380A2801D20120704700209B
:103C20007047000010B56FF00400FFF717FE0A4858
:103C300000680A49B0FBF1F00949087008460078AD
:103C400000EB4001C1EBC0104FF6FF7101EAC0006C
:103C50000449088010BD00000000002000127A0016
:103C600014000020160000200146114A12884A4321
:103C70004FF0E0235A6100229A611A46126942F01D
:103C800001021A6100BF4FF0E022106900F001024A
:103C90001AB100F48032002AF5D04FF0E022126908
:103CA00022F001024FF0E0231A6100229A6170476E
:103CB000160000200146114A12784A434FF0E023D3
:103CC0005A6100229A611A46126942F001021A6191
:103CD00000BF4FF0E022106900F001021AB100F4B9
:103CE0008032002AF5D04FF0E022126922F0010262
:103CF0004FF0E0231A6100229A61704714000020FF
:103D00008A68002A01DCFEF79ABC521E8A604A6863
:103D1000C0B2531C4B6010707047000010B50446D1
:103D200004B910BD214602A0FEF7E8F900BFFEE786
:103D30004572726F723A20253032580A0000000036
:103D4000FFF794FB4FF4E130FFF716FFFFF76AFF30
:103D50004FF4A060FFF7FCFAFFF704FB0EA0FEF79C
:103D6000CDF9FFF7B3F8FFF79BF804462046FFF7BD
:103D7000D5FF0FE00DA0FEF7C1F906E0FCF7B9FA98
:103D800000B906E06420FFF76FFF0D4800780228B5
:103D9000F4DB00BFEEE7000030313031303130313C
:103DA000303130313031303130310A00776169746F
:103DB00020756469736B20636F6E6E6563740A00AF
:103DC0003100002040F2145000E0401E0028FCD1D9
:103DD000704740F6282000E0401E0028FCD17047C4
:103DE0007047000010B500BF00F020F800F0800020
:103DF0000028F9D1222000F02BF800F019F8094929
:103E0000087008460078162803D10120064908707A
:103E100006E004480078152802D102200249087003
:103E200010BD00003000002031000020002070474D
:103E300010B500BF20210548FFF7F6FD0028F9D096
:103E40000248FFF78FFEC0B210BD000000440040E2
:103E500010B5044644F480710648FFF788FE00BFA1
:103E600080210448FFF7E0FD0028F9D00220FFF789
:103E700021FF10BD0044004010B50446214607480C
:103E8000FFF775FE00BF80210448FFF7CDFD002835
:103E9000F9D00120FFF70EFF10BD000000440040E4
:103EA0003031323334353637383941424344454670
:103EB000403058003031323334353637383961626A
:103EC000636465664030780004000008000000006C
:103ED0000000000200010000103A7474003A74748B
:103EE000003A747400000000083F00080000002041
:103EF000A000000028010008A83F0008A000002042
:103F0000B00A00004401000800A24A0400000000BA
:103F10000000000001020304060708090000000079
:103F20000000000000000102030401020304060770
:103F3000080902040608000000000000000000005C
:103F40000000000000000000000000000000000071
:103F50000000000000000000000000000000000061
:103F60000000000000000000000000000000000051
:103F70000000000000000000000000000000000041
:103F80000000000000000000000000000000000031
:103F90000000000000000000000000000000000021
:083FA000000000000000000019
:04000005080000ED02
:00000001FF
