:020000040800F2
:10000000D0080020DD010008AF0E0008A70E000890
:10001000AB0E0008550D0008151600080000000082
:10002000000000000000000000000000191200089D
:10003000590D000800000000B10E00082D13000843
:10004000F7010008F7010008F7010008F7010008B0
:10005000F7010008F7010008F7010008F7010008A0
:10006000F7010008F7010008F7010008F701000890
:10007000F7010008F7010008F7010008F701000880
:10008000F7010008F7010008F7010008F701000870
:10009000F7010008F7010008F7010008F701000860
:1000A000F7010008F7010008F7010008F701000850
:1000B000F7010008F7010008F7010008F701000840
:1000C000F7010008F7010008F7010008F701000830
:1000D000F701000891130008F7010008F701000874
:1000E000F7010008F7010008F7010008F701000810
:1000F000F7010008F7010008F7010008F701000800
:10010000F7010008F7010008F7010008F7010008EF
:10011000F7010008F7010008F7010008F7010008DF
:10012000F7010008F7010008F7010008F7010008CF
:1001300000F002F800F042F80AA090E8000C8244B7
:100140008344AAF10107DA4501D100F037F8AFF294
:10015000090EBAE80F0013F0010F18BFFB1A43F0A5
:10016000010318476815000088150000103A24BFE5
:1001700078C878C1FAD8520724BF30C830C144BF0C
:1001800004680C607047000000230024002500264E
:10019000103A28BF78C1FBD8520728BF30C148BFEA
:1001A0000B6070471FB59DE8030000F0A5FB00F051
:1001B00073F81FBD10B500F0D8F810BD00F03BF982
:1001C0001146FFF7EFFF01F057FA00F03FFB03B4D1
:1001D000FFF7F0FF03BC00F021FD00000948804755
:1001E00009480047FEE7FEE7FEE7FEE7FEE7FEE719
:1001F000FEE7FEE7FEE7FEE704480549054A064B31
:10020000704700003113000831010008D0020020BF
:10021000D0080020D0040020D00400200FB40449EE
:1002200010B503AA029800F009F810BC5DF814FBA1
:10023000C40100207047704770470000074B70B53D
:100240000D467B4400F011F80446284600F020F8E3
:1002500010B14FF0FF3070BD204670BD1714000084
:1002600001694A1C02610878704700B58FB0CDE97A
:1002700001310021059105497944CDE9031011466A
:10028000684600F024F90FB000BD0000E5FFFFFF55
:10029000007B00F08000704710B54248542100F008
:1002A000E2FA4148542100F0DEFA4048542100F0BF
:1002B000DAFA3F493B483C4A3F4B08603D490A60F7
:1002C0003A491960531C0365481C106501200865F4
:1002D0003B48344A39A1784400F01CFA20B9384828
:1002E00078440A3800F0B8FA37482F4A35A17844E4
:1002F00000F010FA20B9344878440A3800F0ACFA1B
:1003000032482A4A2FA1784400F004FA20B92F4835
:1003100078440A3800F0A0FA40232248DC0000218B
:10032000224600F0D3F920B125487844543800F033
:1003300093FA1D4822464023002100F0C7F920B15E
:1003400021487844543800F087FA18482246102390
:10035000002100F0BBF9002806D01C487844BDE815
:100360001040563800F078BA10BD104870B5006DD6
:1003700020F001040B4800F043FA0B4800F040FA6B
:100380000A4800F03DFA09E0206D20F00105204602
:1003900000F036FA204600F073F82C46002CF3D11A
:1003A00070BD000070010020C40100201802002070
:1003B00030000020340000203800002072000000CF
:1003C000E613000077000000D2130000BE13000007
:1003D0000EB5CDE9000100F001FC02906946012054
:1003E000ABBE0EBD08B5694600900220ABBE08BD8D
:1003F0001FB58DE8070069460520ABBE04B010BDEF
:100400001FB58DE80F0069460620ABBEF6E708B5BC
:10041000694600900920ABBE08BD1CB5CDE90001BE
:1004200069460A20ABBE1CBD704708B569460090FE
:100430000C20ABBE08BD754600F03CFAAE46050088
:100440006946534620F00700854618B020B5FFF7EF
:10045000D3FEBDE820404FF000064FF000074FF0FC
:1004600000084FF0000B21F00701AC46ACE8C009D2
:10047000ACE8C009ACE8C009ACE8C0098D467047DB
:1004800070B50446051F00F01BFA0068002C14BF6D
:10049000446870BD002C18BFAC423CBF2046646865
:1004A000F8D301680A18AA4218BF456003D12A6828
:1004B00005461144016028684119A1421CBF6C60C7
:1004C00070BD6168696021680844286070BD2DE9CD
:1004D000F04106460024D6E90170F56880463046B2
:1004E00003E04146B847641C3046A8470028F8D1CD
:1004F0002046BDE8F0812DE9F04705460C46C86866
:1005000020F4201040F48000C860800602D5084620
:1005100000F023FBE06841F282014FF0FF39014017
:10052000022903D0204600F0C1FAB5E000F42041D2
:10053000B1F5004F0FD1C00306D56168E06A88426B
:1005400000D80846606006E02069E062606060698B
:10055000FFF76BFFA061A0680022EEB200280DDA61
:10056000E1688B050AD4C043A06041F4903022605A
:10057000E0606068411C61600670A5E0E06890463C
:10058000226040F40050E060206968BB6069FFF7BA
:100590003EFF012704F12405A0B1A08910F4407F9B
:1005A00008D0E06900F0D7F9206118B1E06840F4A4
:1005B000006016E0E7612561E06820F4407040F4D7
:1005C00080600EE0E06900F0C6F900282061F1D0FB
:1005D000E06840F4006010F4407FE06002D140F435
:1005E0008070E06020696060E06825696FF0010A52
:1005F000C1051FD56168E06A884200D80846411BE2
:1006000004D02246284600F05BFAF0BBE068010205
:1006100003D5E562C4E9015854E0691CE1626160F8
:10062000E16940F48030491EC4E9021030462E7062
:10063000BDE8F087010202D500F480320AE060686C
:10064000411C61600670E0680A2E40F48030E06072
:1006500006D00022E16A6068814203D90B4602E0BD
:100660000122F7E70346A7895B1B7F0503D4E769EF
:100670009F4200DDE2B1814200D80146E5620F1AD7
:10068000C4E90158002B09DD00E005E022461946C7
:10069000284600F015FA08B14846C9E747B1A069F5
:1006A000E5626560C01BA061E06840F01000E0609A
:1006B000E068000208D56168A069E562491B08444A
:1006C0006560A0615046B3E73046B1E770B5C468D5
:1006D000A50713D0650211D4B2F5807F09D0B2F519
:1006E000007F06D0B2F5806F08D1012300F124010C
:1006F00006E05D1E6FF07F46B54201D3012070BD5C
:100700000161C361416024F470611143C160002044
:1007100070BD00002DE9F0410C4607461646104614
:1007200000F06EF82078611C61280AD0722802D08F
:1007300077283CD102E00125002405E002250424AD
:1007400002E0082448F2020511F8010B2B2806D01C
:10075000622809D011F8010C74280AD00BE045F08A
:10076000030544F00204EFE745F0040544F00104FA
:10077000EAE744F0100438462146FFF729FE411C01
:1007800015D00021316171604FF40071F560F161A5
:100790007061200704D530460222002100F00AF9DA
:1007A000306D40F0010030653046BDE8F08100203A
:1007B000FBE72DE9F0410D460646104C206DC107C0
:1007C00004D0410804D020F00104F7E722460EE0EF
:1007D000542000F0C0F807000ED0206D47F0010152
:1007E000084354212065384600F03DF83A46294632
:1007F0003046BDE8F0418DE70020D6E770010020CB
:100800002DE9F04704464FF000094FF0FF37C56867
:10081000D4E90486A80707D0204600F07BF93046CB
:10082000FFF7E0FD002802DA3846BDE8F08728052A
:1008300002D54046FFF724FE4C21204600F013F875
:10084000206D20F0010020654846EEE70446AFF336
:1008500000802046FFF7BBFC10B500F0A5F9BDE80D
:10086000104000F09BB94FF0000200B513469446CB
:100870009646203922BFA0E80C50A0E80C50B1F1F8
:100880002001BFF4F7AF090728BFA0E80C5048BF0C
:100890000CC05DF804EB890028BF40F8042B08BFAA
:1008A000704748BF20F8022B11F0804F18BF00F8A6
:1008B000012B7047004870476C0200207047000011
:1008C00000487047740200207047704770477047B7
:1008D00038B504460A4600206946AFF30080002878
:1008E00008BF38BD02460099204600F0A4F9012057
:1008F00038BD012000F0F3B9F8B5AFF3008005462C
:1009000000200C46102000BF0646A819A0420DD9B1
:10091000324669460020AFF30080070008BF00F0B0
:10092000DEF90098A04218BF0546C419FFF7C8FFBA
:1009300005600746F01D20F007004619284600F024
:1009400073F9B44208BFF8BDA21B31463868BDE850
:10095000F84000F070B970B50646FFF7B1FF0568C2
:1009600006F10B0020F00704B4429CBF002070BDCC
:100970002B466A68BAB11068A04210D304F108018E
:1009800088423CBF5068586007D3516810194160D5
:100990001168091B016058601460101D70BD13467A
:1009A0005268002AE7D121462846FFF791FF002828
:1009B000DED170BD2DE9F041044616460D4647696B
:1009C000007B80072ED03846FFF721FD50BB3EB399
:1009D000012E02D0022E25D104E0204600F045F978
:1009E00005441DE03846FFF720FDE168002841F08E
:1009F0001001E16005DA204600F058F80120BDE85A
:100A0000F081C9030BD56268E16A914200D81146B2
:100A1000A26911442269891A814200DD0846054411
:100A2000002D01DA0220EAE7E16A6068E2688142AB
:100A300006D29103E06203D522F4003141F01002A6
:100A4000A6690027AE4213DCE16A814201D90B4658
:100A500000E0034603EB060C2369ACEB030CAC454A
:100A600006DD814201D98C4600E084469C4505D1D3
:100A7000A760276042F02000A5620DE0AD1BE6698B
:100A8000AE1B8142A66000D90846C01A281A206011
:100A90005819606022F0200003490840E0600020FF
:100AA00084F84870ABE70000BFCFD7FFC16821F4DE
:100AB000001141F08001C160002181600160704738
:100AC0002DE9F047814614460E464FF0FF38324874
:100AD000D5685769054209D03846A169FFF79DFCE2
:100AE000002811DB2C48C0430540E5602B46324608
:100AF00049463846FFF77CFCA16920F00042B21A53
:100B000011440028A16103D02046FFF7CFFF4046E3
:100B1000BDE8F08770B504460569C06A616888421F
:100B200000D80846E16821F42011E160C90312D51C
:100B3000A84208D02246411B2846FFF7C1FF10B14A
:100B40004FF0FF3070BD0020E562C4E90150E0685D
:100B500020F48030E060002070BD10B50446C0680D
:100B600020F02000E060A16AA06988420DD02046F4
:100B7000FFF7D0FFE06820F4405040F01000E06044
:100B8000A06AA0612069E062606044F24001E06810
:100B90008843E06010BD000010000200002801D072
:100BA00000F03CB87047000010B5014602A000F00C
:100BB0007DF8012010BD000053494752545245446E
:100BC0003A2052656469726563743A2063616E27E6
:100BD00074206F70656E3A200000000010B5431C51
:100BE00002E010F8011B71B18107FAD14FF0013218
:100BF00002C88C1A8C4314EAC211F9D0C01A0A0632
:100C000003D0C01E10BDC01A10BD0A0401D0801E42
:100C100010BD0902FCD0401E10BD00000149182083
:100C2000ABBEFEE72600020000210160C0E9011012
:100C3000704710207047034640688C46002818BF54
:100C400088423CBF03464068F8D31868184488427D
:100C500007D00CF1030020F00700001D411A521AC2
:100C60000146081D0A60FFF70BBC10B50146C268BB
:100C7000900703D0900607D5886A0AE000F03EF896
:100C800001210160881E10BD8B69486818440B69FA
:100C9000C01A91F848301BB191F84910401A10BDA4
:100CA0001103FCD50028FADD401E10BD70B50546C5
:100CB0000C460A2000E06D1C00F018F835B12878C9
:100CC0000028F8D102E0641C00F010F814B120787C
:100CD0000028F8D1BDE870400A2000F007B810B530
:100CE00000F010F8BDE81040FFF758BF08B569469E
:100CF0008DF800000320ABBE08BD0000004870471F
:100D00006C02002010B5012805D0002103A0FFF7D8
:100D1000CDFF012010BD09A1F8E70000534947525B
:100D2000544D454D3A204F7574206F6620686561BB
:100D300070206D656D6F7279000000003A20486583
:100D40006170206D656D6F727920636F727275705E
:100D50007465640000BFFEE770470000054909683C
:100D600021F01001034A1160114609680143116026
:100D7000704700000020024001460020034A10682E
:100D800000F0380008431060704700000020024067
:100D90002DE9F04102460025002600200023002412
:100DA000002791F803C00CF00F0591F803C00CF078
:100DB000100CBCF1000F03D091F802C04CEA0505FD
:100DC00091F800C0BCF1000F31D0146800202BE076
:100DD0004FF0010C0CFA00F3B1F800C00CEA030666
:100DE0009E4220D183004FF00F0C0CFA03F7BC4356
:100DF00005FA03FC4CEA040491F803C0BCF1280F87
:100E000006D14FF0010C0CFA00FCC2F814C00AE045
:100E100091F803C0BCF1480F05D14FF0010C0CFA5A
:100E200000FCC2F810C0401C0828D1D31460B1F8EF
:100E300000C0BCF1FF0F34DD546800202EE000F14B
:100E4000080C4FF0010808FA0CF3B1F800C00CEAE6
:100E500003069E4221D183004FF00F0C0CFA03F7DA
:100E6000BC4305FA03FC4CEA040491F803C0BCF14E
:100E7000280F05D100F1080C08FA0CF8C2F814800C
:100E800091F803C0BCF1480F07D100F1080C4FF0F6
:100E9000010808FA0CF8C2F81080401C0828CED3CC
:100EA0005460BDE8F08100BFFEE700BFFEE7704779
:100EB0007047000029B1064A52690243044B5A6147
:100EC00004E0034A52698243014B5A6170470000B3
:100ED0000010024029B1064AD2690243044BDA618C
:100EE00004E0034AD2698243014BDA617047000093
:100EF0000010024029B1064A92690243044B9A61EC
:100F000004E0034A92698243014B9A6170470000F2
:100F10000010024010B500F043F84FF4803000F0AC
:100F200001F900F05DF90446012C24D1002000F005
:100F3000EDF8002000F028F9A00200F019F90220D5
:100F4000FFF71AFF1020FFF709FF4FF4E01120040C
:100F500000F02CF9012000F023F900BF392000F047
:100F6000AFF80028FAD0022000F02EF900BF00F000
:100F7000C5F80828FBD1012144F60D20FFF7BAFF80
:100F800001210648FFF7A6FF01218804FFF7A2FF11
:100F900001210846FFF78EFF10BD0000040002008B
:100FA0000F48006840F001000D490860084640689D
:100FB0000C4908400A494860084600680A49084048
:100FC000074908600846006820F480200860084649
:100FD000406820F4FE0048604FF41F0088607047AE
:100FE000001002400000FFF8FFFFF6FE30B50021C0
:100FF0000022002400232D4D6D6805F00C0121B165
:10100000042905D0082923D105E0294D056022E0F7
:10101000274D05601FE0254D6D6805F47012234DC6
:101020006D6805F48034022505EB92421CB9214D10
:10103000554305600BE01D4D6D6805F400351DB18D
:101040001C4D5543056002E0194D5543056002E013
:10105000174D056000BF00BF144D6D6805F0F0012D
:101060000909154D6B5C0568DD4045600F4D6D68E5
:1010700005F4E061090A104D6B5C4568DD40856050
:101080000A4D6D6805F46051C90A0B4D6B5C4568EB
:10109000DD40C560054D6D6805F44041890B074D85
:1010A0006B5CC568B5FBF3F5056130BD001002400F
:1010B00000127A0000093D001A0000202A000020DA
:1010C00010B501460022002300204A11012A02D156
:1010D000094C236806E0022A02D1074C236A01E08A
:1010E000054C636A01F01F02012494401C400CB1BE
:1010F000012000E0002010BD0010024002484068BE
:1011000000F00C0070470000001002400146002073
:10111000034A506820F0F000084350607047000018
:10112000001002401149096821F480310F4A116012
:101130001146096821F480211160B0F5803F03D089
:10114000B0F5802F0ED106E00849096841F48031DE
:10115000064A116007E00549096841F4A021034AE5
:10116000116000E000BF00BF7047000000100240A7
:1011700001460020034A506820F4E06008435060B4
:10118000704700000010024001460020034A5068EA
:1011900020F4605040EAC1005060704700100240E7
:1011A00001490866704700000000424202460020E4
:1011B000044B586820F47C1042EA01031843014BA9
:1011C000586070470010024001460020034A5068F2
:1011D00020F00300084350607047000000100240F8
:1011E00038B5002000900024002500BF3120FFF713
:1011F00067FF05460098401C00900098B0F5A06F6E
:1012000001D0002DF2D03120FFF75AFF08B10124A0
:1012100000E00024204638BD704710B500F002F809
:1012200010BD00000CB5002001900090334800680C
:1012300040F480303149086000BF3048006800F455
:10124000003000900198401C0190009818B9019856
:10125000B0F5A06FF1D12948006800F4003010B15A
:101260000120009001E0002000900098012843D167
:101270002348006840F010002149086008460068D3
:1012800020F0030008600846006840F00200086093
:101290001A4840681949486008464068486008464E
:1012A000406840F4806048600846406820F47C1044
:1012B00048600846406840F4E81048600846006806
:1012C00040F08070086000BF0C48006800F00070BB
:1012D0000028F9D00948406820F003000749486019
:1012E0000846406840F00200486000BF034840687C
:1012F00000F00C000828F9D10CBD000000100240DD
:1013000000200240042808D14FF0E021096941F093
:1013100004014FF0E022116107E04FF0E02109697C
:1013200021F004014FF0E022116170477047000086
:1013300010B51348006840F00100114908600846E4
:101340004068104908400E494860084600680E4948
:1013500008400B4908600846006820F480200860B7
:101360000846406820F4FE0048604FF41F00886083
:10137000FFF753FF4FF000600449086010BD000004
:10138000001002400000FFF8FFFFF6FE08ED00E04D
:1013900008B50821184800F04CF810B1164800F0C4
:1013A000E7F81548008800F04000C0B11348017804
:1013B0000078401C114A10701148405C0E49091D0C
:1013C0000880104600780F490978884207D10A48FA
:1013D0000C30008820F0800007490C310880064856
:1013E000008800F0200028B10348001D008840B2AA
:1013F000009000BF08BD0000003801401800002028
:101400003C0000201900002001F40072B2F5007FBA
:1014100000D100BFCA430280704721B1828942F4E3
:101420000052828104E082894DF6FF731A40828166
:10143000704702460020B1F5007F00D100BF13883D
:101440000B400BB1012000E000207047F0B50346CF
:10145000002400260025002040F66A17B94200D17A
:1014600000BF1846C1F3421401F01F06012707FA16
:1014700006F5012C01D10C3004E0022C01D1103012
:1014800000E014301AB107682F43076002E00768D4
:10149000AF430760F0BD00002DE9F04786B0054678
:1014A0000E460024A24600BFA1460027B08900B125
:1014B00000BF2F462C8A4CF6FF700440F08804438E
:1014C0002C82AC894EF6F3100440B0883189084371
:1014D000718908430443AC81AC8A4FF6FF40044055
:1014E000B0890443AC8201A8FFF780FD1F48874202
:1014F00002D1DDF810A001E0DDF80CA0A88900F40D
:10150000004040B10AEBCA0000EB0A103168490004
:10151000B0FBF1F807E00AEBCA0000EB0A103168F3
:101520008900B0FBF1F86420B8FBF0F00401200959
:10153000642101FB1089A88900F4004040B13220E9
:1015400000EBC900B0FBF1F000F00700044308E035
:10155000322000EB09106421B0FBF1F000F00F0025
:1015600004432C8106B0BDE8F0870000003801403C
:1015700001468888C0F308007047000010B586B0A7
:10158000044601210520FFF7B5FC01218803FFF780
:10159000B1FC4FF40070ADF8140018208DF817005E
:1015A00003208DF8160005A91848FFF7F1FB4FF44A
:1015B0008060ADF8140004208DF8170003208DF82A
:1015C000160005A91148FFF7E3FB01940020ADF8D0
:1015D0000800ADF80A00ADF80C00ADF810000C20C2
:1015E000ADF80E0001A90A48FFF756FF012240F2AC
:1015F00025510748FFF72AFF01210548FFF70DFF96
:1016000040210348FFF700FF06B010BD000801406D
:101610000038014000BFFEE710B56FF00400FFF78F
:1016200071FE0A4800680A49B0FBF1F009490870E8
:101630000846007800EB4001C1EBC0104FF6FF7187
:1016400001EAC0000449088010BD0000000000202D
:1016500000127A0014000020160000208A68002A78
:1016600001DCFEF748BF521E8A604A68C0B2531CB4
:101670004B60107070470000FFF74CFC4FF4E130F6
:10168000FFF77CFFFFF7C8FF03A0FEF7C7FD02E0EE
:1016900006A0FEF7C3FDFBE7303130313031303189
:1016A000303130313031303130310A007761697496
:1016B00020756469736B20636F6E6E6563740A00D6
:1016C0003A7474003A7474003A747400EC160008AA
:1016D000000000203C0000006C01000828170008F2
:1016E0003C000020940800008801000800A24A0481
:1016F00000000000000000000102030406070809C2
:1017000000000000000000000000010203040102CC
:101710000304060708090204060800000000000090
:081720000000000000000000C1
:0400000508000131BD
:00000001FF
